{"abi":[{"type":"constructor","inputs":[],"stateMutability":"nonpayable"},{"type":"fallback","stateMutability":"payable"},{"type":"receive","stateMutability":"payable"},{"type":"function","name":"contributions","inputs":[{"name":"","type":"address","internalType":"address"}],"outputs":[{"name":"","type":"uint256","internalType":"uint256"}],"stateMutability":"view"},{"type":"function","name":"destroy","inputs":[],"outputs":[],"stateMutability":"nonpayable"},{"type":"function","name":"getBalance","inputs":[],"outputs":[{"name":"","type":"uint256","internalType":"uint256"}],"stateMutability":"view"},{"type":"function","name":"getContribution","inputs":[{"name":"_contributor","type":"address","internalType":"address"}],"outputs":[{"name":"","type":"uint256","internalType":"uint256"}],"stateMutability":"view"},{"type":"function","name":"getStats","inputs":[],"outputs":[{"name":"received","type":"uint256","internalType":"uint256"},{"name":"withdrawn","type":"uint256","internalType":"uint256"},{"name":"currentBalance","type":"uint256","internalType":"uint256"}],"stateMutability":"view"},{"type":"function","name":"owner","inputs":[],"outputs":[{"name":"","type":"address","internalType":"address"}],"stateMutability":"view"},{"type":"function","name":"totalReceived","inputs":[],"outputs":[{"name":"","type":"uint256","internalType":"uint256"}],"stateMutability":"view"},{"type":"function","name":"totalWithdrawn","inputs":[],"outputs":[{"name":"","type":"uint256","internalType":"uint256"}],"stateMutability":"view"},{"type":"function","name":"transferOwnership","inputs":[{"name":"newOwner","type":"address","internalType":"address"}],"outputs":[],"stateMutability":"nonpayable"},{"type":"function","name":"withdraw","inputs":[{"name":"amount","type":"uint256","internalType":"uint256"}],"outputs":[],"stateMutability":"nonpayable"},{"type":"function","name":"withdrawAll","inputs":[],"outputs":[],"stateMutability":"nonpayable"},{"type":"event","name":"FallbackCalled","inputs":[{"name":"sender","type":"address","indexed":true,"internalType":"address"},{"name":"amount","type":"uint256","indexed":false,"internalType":"uint256"},{"name":"data","type":"bytes","indexed":false,"internalType":"bytes"}],"anonymous":false},{"type":"event","name":"OwnershipTransferred","inputs":[{"name":"previousOwner","type":"address","indexed":true,"internalType":"address"},{"name":"newOwner","type":"address","indexed":true,"internalType":"address"}],"anonymous":false},{"type":"event","name":"Received","inputs":[{"name":"sender","type":"address","indexed":true,"internalType":"address"},{"name":"amount","type":"uint256","indexed":false,"internalType":"uint256"}],"anonymous":false},{"type":"event","name":"Withdrawn","inputs":[{"name":"recipient","type":"address","indexed":true,"internalType":"address"},{"name":"amount","type":"uint256","indexed":false,"internalType":"uint256"}],"anonymous":false}],"bytecode":{"object":"0x608060405234801561001057600080fd5b50600080546001600160a01b03191633179055610685806100326000396000f3fe6080604052600436106100a05760003560e01c806383197ef01161006457806383197ef014610247578063853828b61461025c5780638da5cb5b14610271578063a3c2c462146102a9578063c59d4847146102bf578063f2fde38b146102ee57610118565b806312065fe01461018a57806321eff7fc146101ac5780632e1a7d4d146101e257806342e94c90146102045780634b3197131461023157610118565b366101185734600160008282546100b79190610572565b909155505033600090815260036020526040812080543492906100db908490610572565b909155505060405134815233907f88a5966d370b9919b20f3e2c13ff65706f196a4e32cc2c12bf57088f88525874906020015b60405180910390a2005b346001600082825461012a9190610572565b9091555050336000908152600360205260408120805434929061014e908490610572565b909155505060405133907faca09dd456ca888dccf8cc966e382e6e3042bb7e4d2d7815015f844edeafce429061010e9034906000903690610599565b34801561019657600080fd5b50475b6040519081526020015b60405180910390f35b3480156101b857600080fd5b506101996101c73660046105cf565b6001600160a01b031660009081526003602052604090205490565b3480156101ee57600080fd5b506102026101fd3660046105ff565b61030e565b005b34801561021057600080fd5b5061019961021f3660046105cf565b60036020526000908152604090205481565b34801561023d57600080fd5b5061019960025481565b34801561025357600080fd5b5061020261041e565b34801561026857600080fd5b50610202610456565b34801561027d57600080fd5b50600054610291906001600160a01b031681565b6040516001600160a01b0390911681526020016101a3565b3480156102b557600080fd5b5061019960015481565b3480156102cb57600080fd5b5060015460025447604080519384526020840192909252908201526060016101a3565b3480156102fa57600080fd5b506102026103093660046105cf565b610497565b6000546001600160a01b031633146103415760405162461bcd60e51b815260040161033890610618565b60405180910390fd5b478111156103885760405162461bcd60e51b8152602060048201526014602482015273496e73756666696369656e742062616c616e636560601b6044820152606401610338565b806002600082825461039a9190610572565b9091555050600080546040516001600160a01b039091169183156108fc02918491818181858888f193505050501580156103d8573d6000803e3d6000fd5b506000546040518281526001600160a01b03909116907f7084f5476618d8e60b11ef0d7d3f06914655adb8793e28ff7f018d4c76d505d59060200160405180910390a250565b6000546001600160a01b031633146104485760405162461bcd60e51b815260040161033890610618565b6000546001600160a01b0316ff5b6000546001600160a01b031633146104805760405162461bcd60e51b815260040161033890610618565b6000479050806002600082825461039a9190610572565b6000546001600160a01b031633146104c15760405162461bcd60e51b815260040161033890610618565b6001600160a01b0381166105175760405162461bcd60e51b815260206004820152601d60248201527f4e6577206f776e657220697320746865207a65726f20616464726573730000006044820152606401610338565b600080546040516001600160a01b03808516939216917f8be0079c531659141344cd1fd0a4f28419497f9722a3daafe3b4186f6b6457e091a3600080546001600160a01b0319166001600160a01b0392909216919091179055565b8082018082111561059357634e487b7160e01b600052601160045260246000fd5b92915050565b83815260406020820152816040820152818360608301376000818301606090810191909152601f909201601f1916010192915050565b6000602082840312156105e157600080fd5b81356001600160a01b03811681146105f857600080fd5b9392505050565b60006020828403121561061157600080fd5b5035919050565b60208082526017908201527f43616c6c6572206973206e6f7420746865206f776e657200000000000000000060408201526060019056fea264697066735822122062434a72914e9c5547fe407f88e388917dd1fc0f83fbe23224dce70be35781af64736f6c63430008130033","linkReferences":{}},"methodIdentifiers":{"contributions(address)":"42e94c90","destroy()":"83197ef0","getBalance()":"12065fe0","getContribution(address)":"21eff7fc","getStats()":"c59d4847","owner()":"8da5cb5b","totalReceived()":"a3c2c462","totalWithdrawn()":"4b319713","transferOwnership(address)":"f2fde38b","withdraw(uint256)":"2e1a7d4d","withdrawAll()":"853828b6"},"id":21}